:020000040000fa
:080000000002040000000000f2
:020000040000fa
:100400006f84200000ff2000000188000000000031
:100410000a00070011000700000020000000e000b3
:10042000020032000000020000000000aa030200e7
:10043000000000000040da000000fe004440a90077
:10044000000e20000000e000030032000000200049
:10045000a00188004440a80000000600e0852000bc
:10046000010020001600370062004000e0804800d4
:10047000910188009001ba0062004000e0804800cd
:10048000910188009002ba0062004000e0804800bc
:100490000002eb006028e10005003a008301e9005a
:1004a00007003300038009000059eb000400370007
:1004b0006128e100010032000082eb000500070026
:1004c000910188001001ba000200e000e6ff3a0046
:1004d0000000050091018800800278006200400061
:1004e000e08048003559ba008301e9000800320075
:1004f0002559ba008301e900050032000400e0003c
:10050000f4ff320015d9ba008301e900f1ff3a0087
:1005100000000600839f68000100e00002003d002b
:1005200060001000e08018000300e00002003d00c1
:1005300060011100e0811900050007004f00e00094
:1005400002003b0060001000e08018000000060080
:100550006022b800060220000000d0008180d20096
:100560000482d2008582d2000000a0000202520064
:1005700083825a00030031000202420083824a0053
:100580000000a1000603e900f3ff3a0000000600a6
:10059000881f78008a1f78004400f800080f2000a8
:1005a000280288000004900010059000a000900030
:1005b00030019000c00190000300ca000280ca0010
:1005c0000030cb001a00cd004604c3000100ca0071
:1005d0004604c0001e04c0000605c0000100cd0096
:1005e00021009800050d7800eaba970005257800eb
:1005f0004400f9004f0578004f0478000000060021
:10060000801f78004000b0000008eb004f00780029
:10061000801f7800100090000018eb000018eb001d
:100620000008eb004f007800000006004400f800ce
:10063000020f200022028800910078003000ca00da
:100640003080ca000000cb002080ca000000cb0030
:100650003100cd004000ca000000cb000000cb00fc
:100660000010cb003100cd001180cc004400f90017
:040670000000060080
:020000040000fa
:0200000401f009
:04000c00f8ff0000f9
:020000040000fa
:0200000401f009
:040010007bff000072
:020000040000fa
:0200000401f009
:040014007fff00006a
:020000040000fa
:0200000401f009
:04001800ffff0000e6
:020000040000fa
:0200000401f009
:04001c00ddff000004
:020000040000fa
:100008007e0800007e0800007e0800007e080000d0
:100018007e0800007e0800007e0800007e080000c0
:100028007e0800007e0800007e0800007e060000b2
:100038007e0800007e0800007e0800007e080000a0
:100048007e0800007e0800007e0800007e08000090
:100058007e0800001c0500007e0800007e080000e5
:100068007e0800007e0800007e0800007e08000070
:100078007e0800007e0800007e0800007e08000060
:100088007e0800007e0800007e0800007e08000050
:100098007e0800007e0800007e0800007e08000040
:1000a8007e0800007e0800007e0800007e08000030
:1000b8007e0800007e0800007e0800007e08000020
:1000c8007e0800007e0800007e0800007e08000010
:1000d8007e0800007e0800007e0800007e08000000
:1000e8007e0800007e0800007e0800007e080000f0
:1000f8007e0800007e0800007e0800007e080000e0
:100108007e0800009a0500007e0800007e080000b6
:100118007e0800007e0800007e0800007e080000bf
:100128007e0800007e0800007e0800007e080000af
:100138007e0800007e0800007e0800007e0800009f
:100148007e0800007e0800007e0800007e0800008f
:100158007e0800007e0800007e0800007e0800007f
:100168007e0800007e0800007e0800007e0800006f
:100178007e0800007e0800007e0800007e0800005f
:100188007e0800007e0800007e0800007e0800004f
:100198007e0800007e0800007e0800007e0800003f
:1001a8007e0800007e0800007e0800007e0800002f
:1001b8007e0800007e0800007e0800007e0800001f
:1001c8007e0800007e0800007e0800007e0800000f
:1001d8007e0800007e0800007e0800007e080000ff
:1001e8007e0800007e0800007e0800007e080000ef
:0801f8007e0800007e080000f3
:020000040000fa
:100208007e0800007e0800007e0800007e080000ce
:100218007e0800007e0800007e0800007e080000be
:100228007e0800007e0800007e0800007e060000b0
:100238007e0800007e0800007e0800007e0800009e
:100248007e0800007e0800007e0800007e0800008e
:100258007e0800001c0500007e0800007e080000e3
:100268007e0800007e0800007e0800007e0800006e
:100278007e0800007e0800007e0800007e0800005e
:100288007e0800007e0800007e0800007e0800004e
:100298007e0800007e0800007e0800007e0800003e
:1002a8007e0800007e0800007e0800007e0800002e
:1002b8007e0800007e0800007e0800007e0800001e
:1002c8007e0800007e0800007e0800007e0800000e
:1002d8007e0800007e0800007e0800007e080000fe
:1002e8007e0800007e0800007e0800007e080000ee
:1002f8007e0800007e0800007e0800007e080000de
:100308007e0800009a0500007e0800007e080000b4
:100318007e0800007e0800007e0800007e080000bd
:100328007e0800007e0800007e0800007e080000ad
:100338007e0800007e0800007e0800007e0800009d
:100348007e0800007e0800007e0800007e0800008d
:100358007e0800007e0800007e0800007e0800007d
:100368007e0800007e0800007e0800007e0800006d
:100378007e0800007e0800007e0800007e0800005d
:100388007e0800007e0800007e0800007e0800004d
:100398007e0800007e0800007e0800007e0800003d
:1003a8007e0800007e0800007e0800007e0800002d
:1003b8007e0800007e0800007e0800007e0800001d
:1003c8007e0800007e0800007e0800007e0800000d
:1003d8007e0800007e0800007e0800007e080000fd
:1003e8007e0800007e0800007e0800007e080000ed
:0803f8007e0800007e080000f1
:020000040000fa
:10067400000000000120000004200000040200002b
:100684001002000010080000010800000000000033
:10069400000000000200000001000000040000004f
:1006a400020000000100000004000000000000003f
:1006b4000000000000000000ffff00000000000038
:1006c400ffff000000000000ffff0000000000002a
:1006d4000002000004060000080a00000c0e0000de
:1006e4001012000014160000181a00001c1e00004e
:1006f4002022000024260000282a00002c2e0000be
:100704000101000001360000013a00003c3e0000f7
:100714000002000004060000080a00000c0e00009d
:100724000101000001160000011a00001c1e000057
:100734000101000001260000012a00002c2e000007
:100744000101000001360000013a00003c3e0000b7
:020000040000fa
:100754000000fa00e0012000303a880044c7bf00de
:10076400f043b20044e7b7004174200091407800a0
:1007740000ceb30000c0600044e7b7000000eb0007
:10078400403a880040a7a9001200200081072000f9
:10079400a009200033742000814978008049780042
:1007a40082497800120020006104200070052000b6
:1007b40023742000814978008049780082497800b8
:1007c40043c7bf000047b200f04f5000fcff3a009f
:1007d40042c7bf000042b2000004e000fcff320048
:1007e400a001200040418800004280007041880040
:1007f400104280008041880020428000904188009f
:1008040000802000a041880080ff2000b0418800c3
:1008140041832000e082200083ff07004083200002
:1008240076ff070080022000c0418800cd42a90065
:10083400c942a900cd62a900c962a900cd82a9005c
:10084400c982a900cda2a900c9a2a900cdc2a9004c
:10085400c9c2a900cde2a900c9e2a900cc82a900bd
:10086400c882a800c502a900c102a80081e0a900ad
:10087400ba0107009d010700e1010700e901070033
:100884000628a9000608a90000003700cac2bf0054
:10089400704060000004e000fcff3a0002003700f2
:1008a40040012000f2010700cac2bf00704060008e
:1008b4000004e000faff320011e1a8007077200084
:1008c400400e88000628a8000608a8008002200020
:1008d400f040880080022000e04088000000eb0027
:1008e4005040880010c0b30020e8b7001200370061
:1008f40020c8bf000080fb00a13328000000400096
:1009040060807800a00e8800504080000000e8005d
:100914005040880051408000d04c2000808f50000f
:10092400f3ff36000000eb005040880020c8bf00f1
:100934000040e80020e8b70020c8bf00e64f5000a0
:10094400f1ff36000628a900f04c20005040880032
:100954000000eb00c601070031003700cac2bf0027
:10096400704060000004e0002d003a0002003700ef
:1009740040012000be010700cac2bf0070406000f1
:100984000004e000faff320000702000400e8800ee
:100994000000eb00a00e88000628a9000608a900a4
:1009a40010002000f040880011e1a9000000eb00d5
:1009b400300888000000eb00104188000000eb00c4
:1009c40020418800404180006300b9000000d1004c
:1009d400504188000000eb00604188000042800024
:1009e40070418800104280008041880020428000cd
:1009f4009041880000802000a041880080ff2000f2
:100a0400b041880041832000e082200006ff0700f7
:100a140040832000f9fe070080022000c0418800c6
:100a240030408000610060000000e000cbff3a002d
:100a340096ff37003600f800809fbe00821f7800c2
:100a44003400f80000c0b300a00188000000fa00e0
:100a5400001880004041880040418000f90f500098
:100a640002003e00a00120004041880010188000d0
:100a74009040880020188000a04088003018800032
:100a8400b040880091408000a040800080804000f9
:100a9400b0408000008040003200200011000900b6
:100aa4000280d800804088000fc8bf00e54f500086
:100ab400170036000000eb00c04088009140800021
:100ac40080408000808f500003003600c0408000ca
:100ad4000000e800c0408800a14080008040800001
:100ae400808f500003003600c04080000080e80082
:100af400c0408800b140800080408000808f50005a
:100b040003003600c040800064004000c0408800fc
:100b14002003a90085a0a9000080fa003400f90090
:100b24004f0178004f00be003600f9000040060077
:100b34003600f800809fbe00829fbe00849fbe00e6
:100b4400869fbe003400f80000c0b300a0018800f6
:100b54000000fa00f1408000000a2000808f50005d
:100b64000c003600f04080008000d100f0ff270028
:100b740080806000f0ff270000816000310e80005b
:100b8400000028000080600002007000300e880021
:100b940014003700f1408000c0042000808f500012
:100ba4000c003600f0408000c300de00f0ff270098
:100bb40080806000f0ff270000816000310e80001b
:100bc400000028000080600002007000300e8800e1
:100bd40004003700300e800001002800010060008e
:100be400300e880030408000620060000000e000a9
:100bf4000d00320030408000610060000000e00021
:100c040009003200f0408000d00e8800d00e800031
:100c1400c00e8800c00e8000b00e880050408000d6
:100c24000000e80050408800504080000000e800c8
:100c34005040880051408000e04c2000808f5000dc
:100c440001003600410007000fc8bf000040e80063
:100c54000fe8b7000fc8bf00e54f50001d00360075
:100c64000dc8bf000080fb00a13528000000400033
:100c7400e0807800c0408000008168000dc8bf009b
:100c84000080fb00a1342800000040006080780050
:100c9400000061000000e000030032000ec8bf0045
:100ca4000004a0000ee8b7000ec8bf008080fb005f
:100cb400a0362800614078000ee8b7000ec8bf00d7
:100cc4000080fb00610060000004e00001003200cd
:100cd4001e0007008b20a9000080fa003400f900f0
:100ce4004f03be004f02be004f01be004f00be00c6
:100cf4003600f90000400600809fbe003400f80072
:100d040000c0b300a00188000000fa000dc8bf00b5
:100d14000080fb00a13328000000400060807800c0
:100d2400a00e88000040eb000fe8b7008460a90023
:100d340005e1a9000000eb00000888000080fa002b
:100d44003400f9004f00be00004006000000fa0025
:100d540011e1a90021418000104180008080400001
:100d6400300880000080400032002000110009009b
:100d74000280d8002041880030088000104188009b
:100d84000000eb003008880011e1a8002041800039
:100d94007900b900c2032000110009000280d800c4
:100da400f0418800204180008000d100f0418000a3
:100db400008050003041880030418000e10f500035
:100dc400030036003041800010088800040037001a
:100dd4001000200030418800304180001008880055
:100de40005e1a8000000eb005040880070c0b3008b
:100df40020e8b70030408000620060000000e0009e
:100e040005003a0030408000610060000000e0000e
:100e1400010032000c0007000040eb000ee8b700b0
:100e24000dc8bf000040e8000de8b7000dc8bf00c2
:100e3400e64f50000200360010c0b3000de8b700c2
:100e44000080fa00000006000000fa004041800023
:100e54006300b9000000d1005041880020418000a7
:100e64006101b80000f4260011002000a8fd07006d
:100e74006041880050418000e0418800604180006a
:100e8400d041880040832000c0fd0700c04180009d
:100e94000000e00002003d0080022000c041880004
:100ea400c141800080572000808f5000050034002d
:100eb40080572000b00e880080572000c041880071
:100ec40002003700c0418000f0408800f0408000fc
:100ed400b00e8800f0408000c00e8800f040800012
:100ee400d00e88000080fa00000006000000fa001e
:100ef40000e02f0060198800c00620000019880057
:100f0400100020003019880080002000401988005b
:100f14000000eb00801988002000200020198800c0
:100f240000302000101988002003a900a10a200025
:100f340091407800f0c8b30000c0600001c5b30060
:100f440001407000aae0b70085a0a90095a0a80000
:100f540021e3a8000080fa00000006000000fa0067
:100f6400002e2000200e8800c1a1a800c0c1bf002f
:100f74006f406000c0e1b700011c20009140780080
:100f840030cfb30000c06000c0e1b700011c2000f6
:100f940091407800c0cfb30000c060000014a000ee
:100fa400c0e1b70000702000400e88000000eb0094
:100fb400a00e8800c7e1a900310e800000002800bf
:100fc40000806000300e88000000eb00500e8800a6
:100fd400010c200091407800f0c8b30000c060000c
:100fe40001c4b30001407000c0e0b7008b20a90029
:100ff4009b20a800c1e1a8000080fa0000000600c0
:101004000000fa000000eb00300888000080eb00cc
:101014006008880000032000800888000080fa002f
:10102400000006000000fa000000eb000008880041
:10103400a000200010088800000320002008880079
:10104400510a200091407800f0c8b30000c060004d
:1010540001c5b30001407000a5e0b7008460a90099
:101064009460a80005e1a8000080fa0000000600d2
:101074000400fa0010079800070037000000eb0096
:10108400000f7800010037001e0fe800703e2000ba
:101094009e0f1000fcff36001e0090000000e900c7
:1010a400100798001e009000e10f4000f3ff3a0083
:0810b4000080fa0000000600b4
:020000040000fa
:1010bc003e08000008000000020000000000c40010
:1010cc0009000100000000000608000038000000c4
:1010dc0000000000000800000600000000000000f6
:1010ec00f80f0000060000000000000000000000e7
:020000040000fa
:0410fc000000fe00f2
:00000001FF
